{
  "contractName": "RockPaperScissors",
  "abi": [
    {
      "inputs": [],
      "stateMutability": "nonpayable",
      "type": "constructor"
    },
    {
      "inputs": [
        {
          "internalType": "address",
          "name": "",
          "type": "address"
        }
      ],
      "name": "choices",
      "outputs": [
        {
          "internalType": "uint8",
          "name": "",
          "type": "uint8"
        }
      ],
      "stateMutability": "view",
      "type": "function"
    },
    {
      "inputs": [],
      "name": "enter",
      "outputs": [],
      "stateMutability": "payable",
      "type": "function"
    },
    {
      "inputs": [],
      "name": "getEntranceFee",
      "outputs": [
        {
          "internalType": "uint256",
          "name": "",
          "type": "uint256"
        }
      ],
      "stateMutability": "view",
      "type": "function"
    },
    {
      "inputs": [
        {
          "internalType": "uint8",
          "name": "choice",
          "type": "uint8"
        }
      ],
      "name": "startBattle",
      "outputs": [],
      "stateMutability": "nonpayable",
      "type": "function"
    },
    {
      "inputs": [],
      "name": "endBattle",
      "outputs": [],
      "stateMutability": "nonpayable",
      "type": "function"
    },
    {
      "inputs": [],
      "name": "pickWinner",
      "outputs": [],
      "stateMutability": "nonpayable",
      "type": "function"
    }
  ],
  "bytecode": "0x608060405234801561001057600080fd5b506103be806100206000396000f3fe6080604052600436106100555760003560e01c806309bc33a71461005a578063410346b3146100855780635d495aea146100c25780639bed2da6146100d9578063d1c9861814610102578063e97dcb6214610119575b600080fd5b34801561006657600080fd5b5061006f610123565b60405161007c91906102ca565b60405180910390f35b34801561009157600080fd5b506100ac60048036038101906100a791906101fa565b610128565b6040516100b991906102e5565b60405180910390f35b3480156100ce57600080fd5b506100d7610148565b005b3480156100e557600080fd5b5061010060048036038101906100fb9190610223565b61014a565b005b34801561010e57600080fd5b50610117610182565b005b610121610184565b005b600090565b60006020528060005260406000206000915054906101000a900460ff1681565b565b600060ff168160ff1614806101655750600160ff168160ff16145b806101765750600260ff168160ff16145b61017f57600080fd5b50565b565b61018c610123565b3410156101ce576040517f08c379a00000000000000000000000000000000000000000000000000000000081526004016101c5906102aa565b60405180910390fd5b565b6000813590506101df8161035a565b92915050565b6000813590506101f481610371565b92915050565b60006020828403121561020c57600080fd5b600061021a848285016101d0565b91505092915050565b60006020828403121561023557600080fd5b6000610243848285016101e5565b91505092915050565b6000610259601983610300565b91507f4e6f7420656e6f75676820746f6b656e7320746f20706c6179000000000000006000830152602082019050919050565b61029581610343565b82525050565b6102a48161034d565b82525050565b600060208201905081810360008301526102c38161024c565b9050919050565b60006020820190506102df600083018461028c565b92915050565b60006020820190506102fa600083018461029b565b92915050565b600082825260208201905092915050565b600061031c82610323565b9050919050565b600073ffffffffffffffffffffffffffffffffffffffff82169050919050565b6000819050919050565b600060ff82169050919050565b61036381610311565b811461036e57600080fd5b50565b61037a8161034d565b811461038557600080fd5b5056fea264697066735822122097791c2f6224251903d21525d10fd3d1dff7099b76af66dd719841814ba2391464736f6c63430008000033",
  "immutableReferences": {},
  "source": "pragma solidity 0.8.0;\nimport \"@openzeppelin/contracts/utils/math/SafeMath.sol\";\n\ncontract RockPaperScissors {\n    using SafeMath for uint256;\n    constructor() public {\n\n    }\n\n    uint8 constant ROCK = 0;\n    uint8 constant PAPER = 1;\n    uint8 constant SCISSORS = 2;\n\n    mapping(address => uint8) public choices;\n\n    function enter() public payable {\n        require(msg.value >= getEntranceFee(), \"Not enough tokens to play\");\n        \n\n    }\n\n    function getEntranceFee() public view returns (uint256) {\n        \n\n    }\n\n    function startBattle(uint8 choice) public {\n        require(choice == ROCK || choice == PAPER || choice == SCISSORS);\n        \n    }\n\n    function endBattle() public {\n\n    }\n\n    function pickWinner() public {\n\n    }\n\n}",
  "sourcePath": "/Users/lohba/Documents/Projects/RockPaperScissors-test-project/contracts/RockPaperScissors.sol",
  "compiler": {
    "name": "solc",
    "version": "0.8.0+commit.c7dfd78e.Emscripten.clang"
  },
  "schemaVersion": "3.4.1",
  "updatedAt": "2021-05-21T22:53:47.613Z",
  "devdoc": {
    "kind": "dev",
    "methods": {},
    "version": 1
  },
  "userdoc": {
    "kind": "user",
    "methods": {},
    "version": 1
  }
}